{
  "contractName": "U2SSO",
  "abi": [
    {
      "inputs": [],
      "stateMutability": "nonpayable",
      "type": "constructor"
    },
    {
      "inputs": [
        {
          "internalType": "uint256",
          "name": "",
          "type": "uint256"
        }
      ],
      "name": "idList",
      "outputs": [
        {
          "internalType": "uint256",
          "name": "id",
          "type": "uint256"
        },
        {
          "internalType": "uint256",
          "name": "id33",
          "type": "uint256"
        },
        {
          "internalType": "bool",
          "name": "active",
          "type": "bool"
        },
        {
          "internalType": "address",
          "name": "owner",
          "type": "address"
        }
      ],
      "stateMutability": "view",
      "type": "function",
      "constant": true
    },
    {
      "inputs": [],
      "name": "serviceCount",
      "outputs": [
        {
          "internalType": "uint256",
          "name": "",
          "type": "uint256"
        }
      ],
      "stateMutability": "view",
      "type": "function",
      "constant": true
    },
    {
      "inputs": [
        {
          "internalType": "uint256",
          "name": "",
          "type": "uint256"
        }
      ],
      "name": "serviceList",
      "outputs": [
        {
          "internalType": "bytes",
          "name": "",
          "type": "bytes"
        }
      ],
      "stateMutability": "view",
      "type": "function",
      "constant": true
    },
    {
      "inputs": [
        {
          "internalType": "uint256",
          "name": "_id",
          "type": "uint256"
        },
        {
          "internalType": "uint256",
          "name": "_id33",
          "type": "uint256"
        }
      ],
      "name": "addID",
      "outputs": [
        {
          "internalType": "uint256",
          "name": "",
          "type": "uint256"
        }
      ],
      "stateMutability": "nonpayable",
      "type": "function"
    },
    {
      "inputs": [
        {
          "internalType": "uint256",
          "name": "_index",
          "type": "uint256"
        }
      ],
      "name": "revokeID",
      "outputs": [],
      "stateMutability": "nonpayable",
      "type": "function"
    },
    {
      "inputs": [
        {
          "internalType": "uint256",
          "name": "_index",
          "type": "uint256"
        }
      ],
      "name": "getIDs",
      "outputs": [
        {
          "internalType": "uint256",
          "name": "",
          "type": "uint256"
        },
        {
          "internalType": "uint256",
          "name": "",
          "type": "uint256"
        }
      ],
      "stateMutability": "view",
      "type": "function",
      "constant": true
    },
    {
      "inputs": [
        {
          "internalType": "uint256",
          "name": "_index",
          "type": "uint256"
        }
      ],
      "name": "getState",
      "outputs": [
        {
          "internalType": "bool",
          "name": "",
          "type": "bool"
        }
      ],
      "stateMutability": "view",
      "type": "function",
      "constant": true
    },
    {
      "inputs": [],
      "name": "getIDSize",
      "outputs": [
        {
          "internalType": "uint256",
          "name": "",
          "type": "uint256"
        }
      ],
      "stateMutability": "view",
      "type": "function",
      "constant": true
    },
    {
      "inputs": [
        {
          "internalType": "uint256",
          "name": "_id",
          "type": "uint256"
        },
        {
          "internalType": "uint256",
          "name": "_id33",
          "type": "uint256"
        }
      ],
      "name": "getIDIndex",
      "outputs": [
        {
          "internalType": "int256",
          "name": "",
          "type": "int256"
        }
      ],
      "stateMutability": "view",
      "type": "function",
      "constant": true
    },
    {
      "inputs": [
        {
          "internalType": "bytes",
          "name": "newService",
          "type": "bytes"
        }
      ],
      "name": "registerService",
      "outputs": [],
      "stateMutability": "nonpayable",
      "type": "function"
    },
    {
      "inputs": [],
      "name": "getAllServices",
      "outputs": [
        {
          "internalType": "bytes[]",
          "name": "",
          "type": "bytes[]"
        }
      ],
      "stateMutability": "view",
      "type": "function",
      "constant": true
    },
    {
      "inputs": [
        {
          "internalType": "bytes",
          "name": "service",
          "type": "bytes"
        }
      ],
      "name": "getServiceIndex",
      "outputs": [
        {
          "internalType": "int256",
          "name": "",
          "type": "int256"
        }
      ],
      "stateMutability": "view",
      "type": "function",
      "constant": true
    }
  ],
  "bytecode": "0x60806040523480156200001157600080fd5b50336000806101000a81548173ffffffffffffffffffffffffffffffffffffffff021916908373ffffffffffffffffffffffffffffffffffffffff16021790555060016040518060400160405280600881526020017f5365727669636531000000000000000000000000000000000000000000000000815250908060018154018082558091505060019003906000526020600020016000909190919091509080519060200190620000c4929190620001b8565b5060016040518060400160405280600881526020017f536572766963653200000000000000000000000000000000000000000000000081525090806001815401808255809150506001900390600052602060002001600090919091909150908051906020019062000137929190620001b8565b5060016040518060400160405280600881526020017f5365727669636533000000000000000000000000000000000000000000000000815250908060018154018082558091505060019003906000526020600020016000909190919091509080519060200190620001aa929190620001b8565b5060038081905550620002cc565b828054620001c69062000297565b90600052602060002090601f016020900481019282620001ea576000855562000236565b82601f106200020557805160ff191683800117855562000236565b8280016001018555821562000236579182015b828111156200023557825182559160200191906001019062000218565b5b50905062000245919062000249565b5090565b5b80821115620002645760008160009055506001016200024a565b5090565b7f4e487b7100000000000000000000000000000000000000000000000000000000600052602260045260246000fd5b60006002820490506001821680620002b057607f821691505b602082108103620002c657620002c562000268565b5b50919050565b61120280620002dc6000396000f3fe608060405234801561001057600080fd5b50600436106100b45760003560e01c80636f1acd98116100715780636f1acd981461019257806372b8dee1146101c35780639a80d1dd146101f3578063bd293dca14610223578063ce3375d514610253578063e163691b1461026f576100b4565b806306237526146100b957806321fe0f30146100d75780632d3d1104146100f55780633f7f79951461011357806344c9af281461012f5780636313531f1461015f575b600080fd5b6100c161029f565b6040516100ce91906109c1565b60405180910390f35b6100df6102a5565b6040516100ec9190610b37565b60405180910390f35b6100fd61037e565b60405161010a91906109c1565b60405180910390f35b61012d60048036038101906101289190610ca2565b610388565b005b61014960048036038101906101449190610d17565b610424565b6040516101569190610d5f565b60405180910390f35b61017960048036038101906101749190610d17565b610465565b6040516101899493929190610dbb565b60405180910390f35b6101ac60048036038101906101a79190610d17565b6104d2565b6040516101ba929190610e00565b60405180910390f35b6101dd60048036038101906101d89190610e29565b61050f565b6040516101ea91906109c1565b60405180910390f35b61020d60048036038101906102089190610e29565b61063f565b60405161021a9190610e82565b60405180910390f35b61023d60048036038101906102389190610d17565b610702565b60405161024a9190610ee7565b60405180910390f35b61026d60048036038101906102689190610d17565b6107ae565b005b61028960048036038101906102849190610ca2565b61086d565b6040516102969190610e82565b60405180910390f35b60035481565b60606001805480602002602001604051908101604052809291908181526020016000905b828210156103755783829060005260206000200180546102e890610f38565b80601f016020809104026020016040519081016040528092919081815260200182805461031490610f38565b80156103615780601f1061033657610100808354040283529160200191610361565b820191906000526020600020905b81548152906001019060200180831161034457829003601f168201915b5050505050815260200190600101906102c9565b50505050905090565b6000600454905090565b6004600354106103cd576040517f08c379a00000000000000000000000000000000000000000000000000000000081526004016103c490610fc6565b60405180910390fd5b600181908060018154018082558091505060019003906000526020600020016000909190919091509080519060200190610408929190610905565b506003600081548092919061041c90611015565b919050555050565b6000806002838154811061043b5761043a61105d565b5b906000526020600020906003020190508060020160009054906101000a900460ff16915050919050565b6002818154811061047557600080fd5b90600052602060002090600302016000915090508060000154908060010154908060020160009054906101000a900460ff16908060020160019054906101000a900473ffffffffffffffffffffffffffffffffffffffff16905084565b6000806000600284815481106104eb576104ea61105d565b5b90600052602060002090600302019050806000015481600101549250925050915091565b60006002604051806080016040528085815260200184815260200160011515815260200160008054906101000a900473ffffffffffffffffffffffffffffffffffffffff1673ffffffffffffffffffffffffffffffffffffffff168152509080600181540180825580915050600190039060005260206000209060030201600090919091909150600082015181600001556020820151816001015560408201518160020160006101000a81548160ff02191690831515021790555060608201518160020160016101000a81548173ffffffffffffffffffffffffffffffffffffffff021916908373ffffffffffffffffffffffffffffffffffffffff16021790555050506001600454610622919061108c565b600481905550600160045461063791906110e2565b905092915050565b600080600090505b6004548110156106d757600084600283815481106106685761066761105d565b5b9060005260206000209060030201600001541480156106ab575083600283815481106106975761069661105d565b5b906000526020600020906003020160010154145b905060011515811515036106c35781925050506106fc565b5080806106cf90611015565b915050610647565b507fffffffffffffffffffffffffffffffffffffffffffffffffffffffffffffffff90505b92915050565b6001818154811061071257600080fd5b90600052602060002001600091509050805461072d90610f38565b80601f016020809104026020016040519081016040528092919081815260200182805461075990610f38565b80156107a65780601f1061077b576101008083540402835291602001916107a6565b820191906000526020600020905b81548152906001019060200180831161078957829003601f168201915b505050505081565b6000600282815481106107c4576107c361105d565b5b906000526020600020906003020190508060020160019054906101000a900473ffffffffffffffffffffffffffffffffffffffff1673ffffffffffffffffffffffffffffffffffffffff1660008054906101000a900473ffffffffffffffffffffffffffffffffffffffff1673ffffffffffffffffffffffffffffffffffffffff16036108695760008160020160006101000a81548160ff0219169083151502179055505b5050565b600080600090505b6003548110156108db5782805190602001206001828154811061089b5761089a61105d565b5b906000526020600020016040516108b291906111b5565b6040518091039020036108c85780915050610900565b80806108d390611015565b915050610875565b507fffffffffffffffffffffffffffffffffffffffffffffffffffffffffffffffff90505b919050565b82805461091190610f38565b90600052602060002090601f016020900481019282610933576000855561097a565b82601f1061094c57805160ff191683800117855561097a565b8280016001018555821561097a579182015b8281111561097957825182559160200191906001019061095e565b5b509050610987919061098b565b5090565b5b808211156109a457600081600090555060010161098c565b5090565b6000819050919050565b6109bb816109a8565b82525050565b60006020820190506109d660008301846109b2565b92915050565b600081519050919050565b600082825260208201905092915050565b6000819050602082019050919050565b600081519050919050565b600082825260208201905092915050565b60005b83811015610a42578082015181840152602081019050610a27565b83811115610a51576000848401525b50505050565b6000601f19601f8301169050919050565b6000610a7382610a08565b610a7d8185610a13565b9350610a8d818560208601610a24565b610a9681610a57565b840191505092915050565b6000610aad8383610a68565b905092915050565b6000602082019050919050565b6000610acd826109dc565b610ad781856109e7565b935083602082028501610ae9856109f8565b8060005b85811015610b255784840389528151610b068582610aa1565b9450610b1183610ab5565b925060208a01995050600181019050610aed565b50829750879550505050505092915050565b60006020820190508181036000830152610b518184610ac2565b905092915050565b6000604051905090565b600080fd5b600080fd5b600080fd5b600080fd5b7f4e487b7100000000000000000000000000000000000000000000000000000000600052604160045260246000fd5b610baf82610a57565b810181811067ffffffffffffffff82111715610bce57610bcd610b77565b5b80604052505050565b6000610be1610b59565b9050610bed8282610ba6565b919050565b600067ffffffffffffffff821115610c0d57610c0c610b77565b5b610c1682610a57565b9050602081019050919050565b82818337600083830152505050565b6000610c45610c4084610bf2565b610bd7565b905082815260208101848484011115610c6157610c60610b72565b5b610c6c848285610c23565b509392505050565b600082601f830112610c8957610c88610b6d565b5b8135610c99848260208601610c32565b91505092915050565b600060208284031215610cb857610cb7610b63565b5b600082013567ffffffffffffffff811115610cd657610cd5610b68565b5b610ce284828501610c74565b91505092915050565b610cf4816109a8565b8114610cff57600080fd5b50565b600081359050610d1181610ceb565b92915050565b600060208284031215610d2d57610d2c610b63565b5b6000610d3b84828501610d02565b91505092915050565b60008115159050919050565b610d5981610d44565b82525050565b6000602082019050610d746000830184610d50565b92915050565b600073ffffffffffffffffffffffffffffffffffffffff82169050919050565b6000610da582610d7a565b9050919050565b610db581610d9a565b82525050565b6000608082019050610dd060008301876109b2565b610ddd60208301866109b2565b610dea6040830185610d50565b610df76060830184610dac565b95945050505050565b6000604082019050610e1560008301856109b2565b610e2260208301846109b2565b9392505050565b60008060408385031215610e4057610e3f610b63565b5b6000610e4e85828601610d02565b9250506020610e5f85828601610d02565b9150509250929050565b6000819050919050565b610e7c81610e69565b82525050565b6000602082019050610e976000830184610e73565b92915050565b600082825260208201905092915050565b6000610eb982610a08565b610ec38185610e9d565b9350610ed3818560208601610a24565b610edc81610a57565b840191505092915050565b60006020820190508181036000830152610f018184610eae565b905092915050565b7f4e487b7100000000000000000000000000000000000000000000000000000000600052602260045260246000fd5b60006002820490506001821680610f5057607f821691505b602082108103610f6357610f62610f09565b5b50919050565b600082825260208201905092915050565b7f53657276696365206c6973742069732066756c6c000000000000000000000000600082015250565b6000610fb0601483610f69565b9150610fbb82610f7a565b602082019050919050565b60006020820190508181036000830152610fdf81610fa3565b9050919050565b7f4e487b7100000000000000000000000000000000000000000000000000000000600052601160045260246000fd5b6000611020826109a8565b91507fffffffffffffffffffffffffffffffffffffffffffffffffffffffffffffffff820361105257611051610fe6565b5b600182019050919050565b7f4e487b7100000000000000000000000000000000000000000000000000000000600052603260045260246000fd5b6000611097826109a8565b91506110a2836109a8565b9250827fffffffffffffffffffffffffffffffffffffffffffffffffffffffffffffffff038211156110d7576110d6610fe6565b5b828201905092915050565b60006110ed826109a8565b91506110f8836109a8565b92508282101561110b5761110a610fe6565b5b828203905092915050565b600081905092915050565b60008190508160005260206000209050919050565b6000815461114381610f38565b61114d8186611116565b945060018216600081146111685760018114611179576111ac565b60ff198316865281860193506111ac565b61118285611121565b60005b838110156111a457815481890152600182019150602081019050611185565b838801955050505b50505092915050565b60006111c18284611136565b91508190509291505056fea264697066735822122096c5a06f445ad796124c6fa866f4de94eafbf10d8efdb9ec408c11bfdbedacd764736f6c634300080d0033",
  "immutableReferences": {},
  "source": "// SPDX-License-Identifier: MIT\n// Tells the Solidity compiler to compile only from v0.8.13 to v0.9.0\npragma solidity ^0.8.13;\n\n// This is just a simple example of a coin-like contract.\n// It is not ERC20 compatible and cannot be expected to talk to other\n// coin/token contracts.\n\ncontract U2SSO {\n\tstruct ID {\n        uint256 id;\n        uint id33;\n        bool active;\n        address owner;\n    }\n\n    address private _owner;\n    constructor() {\n        _owner = msg.sender;\n        serviceList.push(bytes(\"Service1\"));\n        serviceList.push(bytes(\"Service2\"));\n        serviceList.push(bytes(\"Service3\"));\n        serviceCount = 3; // Initialize service count\n    }\n\n    bytes[] public serviceList;\n    ID[] public idList;\n\n    uint public serviceCount;\n    uint nextIndex;\n\n    function addID (uint256 _id, uint _id33) public returns (uint) {\n        idList.push(ID(_id, _id33, true, _owner));\n        nextIndex = nextIndex + 1;\n        return nextIndex - 1;\n    }\n\n    function revokeID (uint _index) public {\n        ID storage id = idList[_index];\n        if (_owner == id.owner) {\n            id.active = false;\n        }\n    }\n\n\tfunction getIDs (uint _index) public view returns (uint256, uint) {\n\t\tID storage id = idList[_index];\n\t\treturn (id.id, id.id33);\n\t}\n\n\tfunction getState (uint _index) public view returns (bool) {\n\t\tID storage id = idList[_index];\n\t\treturn id.active;\n\t}\n\n\tfunction getIDSize () public view returns (uint) {\n\t\treturn nextIndex;\n\t}\n\n\tfunction getIDIndex (uint256 _id, uint _id33) public view returns (int) {\n\t\tfor (uint i = 0; i < nextIndex; i++) {\n\t\t\tbool exists = (idList[i].id == _id) && (idList[i].id33 == _id33);\n\t\t\tif(exists == true) {\n\t\t\t\treturn int(i);\n\t\t\t}\n\t\t}\n\t\treturn -1;\n\t}\n\n    function registerService(bytes memory newService) public {\n        require(serviceCount < 4, \"Service list is full\");\n        serviceList.push(newService);\n        serviceCount++;\n    }\n\n    function getAllServices() public view returns (bytes[] memory) {\n        return serviceList;\n    }\n    \n    function getServiceIndex(bytes memory service) public view returns (int) {\n        for (uint i = 0; i < serviceCount; i++) {\n            if (keccak256(serviceList[i]) == keccak256(service)) {\n                return int(i);\n            }\n        }\n        return -1;\n    }\n}\n",
  "sourcePath": "/home/parko/2024.msc.marko.cirkovic/BoquilaID_U2SSO/proof-of-concept-dbpoe/u2ssoContract/contracts/U2SSO.sol",
  "compiler": {
    "name": "solc",
    "version": "0.8.13+commit.abaa5c0e.Emscripten.clang"
  },
  "schemaVersion": "3.4.16",
  "updatedAt": "2024-11-08T08:48:53.845Z",
  "networkType": "ethereum",
  "devdoc": {
    "kind": "dev",
    "methods": {},
    "version": 1
  },
  "userdoc": {
    "kind": "user",
    "methods": {},
    "version": 1
  }
}