{
  "contractName": "Boquila",
  "abi": [
    {
      "inputs": [
        {
          "internalType": "uint256",
          "name": "",
          "type": "uint256"
        }
      ],
      "name": "list",
      "outputs": [
        {
          "internalType": "string",
          "name": "",
          "type": "string"
        }
      ],
      "stateMutability": "view",
      "type": "function",
      "constant": true
    },
    {
      "inputs": [
        {
          "internalType": "string",
          "name": "",
          "type": "string"
        }
      ],
      "name": "pkToIndex",
      "outputs": [
        {
          "internalType": "uint256",
          "name": "",
          "type": "uint256"
        }
      ],
      "stateMutability": "view",
      "type": "function",
      "constant": true
    },
    {
      "inputs": [
        {
          "internalType": "string",
          "name": "elem",
          "type": "string"
        }
      ],
      "name": "addElement",
      "outputs": [],
      "stateMutability": "nonpayable",
      "type": "function"
    },
    {
      "inputs": [
        {
          "internalType": "string",
          "name": "elem",
          "type": "string"
        }
      ],
      "name": "getIndexOfElement",
      "outputs": [
        {
          "internalType": "uint256",
          "name": "",
          "type": "uint256"
        }
      ],
      "stateMutability": "view",
      "type": "function",
      "constant": true
    },
    {
      "inputs": [],
      "name": "getList",
      "outputs": [
        {
          "internalType": "string[]",
          "name": "",
          "type": "string[]"
        }
      ],
      "stateMutability": "view",
      "type": "function",
      "constant": true
    }
  ],
  "bytecode": "0x608060405234801561001057600080fd5b5061096b806100206000396000f3fe608060405234801561001057600080fd5b50600436106100575760003560e01c80630d8c1c2b1461005c57806375789f011461008c57806380c9419e146100a8578063942b765a146100d8578063cf668961146100f6575b600080fd5b61007660048036038101906100719190610571565b610126565b60405161008391906105d3565b60405180910390f35b6100a660048036038101906100a19190610571565b61014e565b005b6100c260048036038101906100bd919061061a565b6101c1565b6040516100cf91906106cf565b60405180910390f35b6100e061026d565b6040516100ed91906107fd565b60405180910390f35b610110600480360381019061010b9190610571565b610346565b60405161011d91906105d3565b60405180910390f35b6000600182604051610138919061085b565b9081526020016040518091039020549050919050565b600081908060018154018082558091505060019003906000526020600020016000909190919091509080519060200190610189929190610374565b50600160008054905061019c91906108a1565b6001826040516101ac919061085b565b90815260200160405180910390208190555050565b600081815481106101d157600080fd5b9060005260206000200160009150905080546101ec90610904565b80601f016020809104026020016040519081016040528092919081815260200182805461021890610904565b80156102655780601f1061023a57610100808354040283529160200191610265565b820191906000526020600020905b81548152906001019060200180831161024857829003601f168201915b505050505081565b60606000805480602002602001604051908101604052809291908181526020016000905b8282101561033d5783829060005260206000200180546102b090610904565b80601f01602080910402602001604051908101604052809291908181526020018280546102dc90610904565b80156103295780601f106102fe57610100808354040283529160200191610329565b820191906000526020600020905b81548152906001019060200180831161030c57829003601f168201915b505050505081526020019060010190610291565b50505050905090565b6001818051602081018201805184825260208301602085012081835280955050505050506000915090505481565b82805461038090610904565b90600052602060002090601f0160209004810192826103a257600085556103e9565b82601f106103bb57805160ff19168380011785556103e9565b828001600101855582156103e9579182015b828111156103e85782518255916020019190600101906103cd565b5b5090506103f691906103fa565b5090565b5b808211156104135760008160009055506001016103fb565b5090565b6000604051905090565b600080fd5b600080fd5b600080fd5b600080fd5b6000601f19601f8301169050919050565b7f4e487b7100000000000000000000000000000000000000000000000000000000600052604160045260246000fd5b61047e82610435565b810181811067ffffffffffffffff8211171561049d5761049c610446565b5b80604052505050565b60006104b0610417565b90506104bc8282610475565b919050565b600067ffffffffffffffff8211156104dc576104db610446565b5b6104e582610435565b9050602081019050919050565b82818337600083830152505050565b600061051461050f846104c1565b6104a6565b9050828152602081018484840111156105305761052f610430565b5b61053b8482856104f2565b509392505050565b600082601f8301126105585761055761042b565b5b8135610568848260208601610501565b91505092915050565b60006020828403121561058757610586610421565b5b600082013567ffffffffffffffff8111156105a5576105a4610426565b5b6105b184828501610543565b91505092915050565b6000819050919050565b6105cd816105ba565b82525050565b60006020820190506105e860008301846105c4565b92915050565b6105f7816105ba565b811461060257600080fd5b50565b600081359050610614816105ee565b92915050565b6000602082840312156106305761062f610421565b5b600061063e84828501610605565b91505092915050565b600081519050919050565b600082825260208201905092915050565b60005b83811015610681578082015181840152602081019050610666565b83811115610690576000848401525b50505050565b60006106a182610647565b6106ab8185610652565b93506106bb818560208601610663565b6106c481610435565b840191505092915050565b600060208201905081810360008301526106e98184610696565b905092915050565b600081519050919050565b600082825260208201905092915050565b6000819050602082019050919050565b600082825260208201905092915050565b600061073982610647565b610743818561071d565b9350610753818560208601610663565b61075c81610435565b840191505092915050565b6000610773838361072e565b905092915050565b6000602082019050919050565b6000610793826106f1565b61079d81856106fc565b9350836020820285016107af8561070d565b8060005b858110156107eb57848403895281516107cc8582610767565b94506107d78361077b565b925060208a019950506001810190506107b3565b50829750879550505050505092915050565b600060208201905081810360008301526108178184610788565b905092915050565b600081905092915050565b600061083582610647565b61083f818561081f565b935061084f818560208601610663565b80840191505092915050565b6000610867828461082a565b915081905092915050565b7f4e487b7100000000000000000000000000000000000000000000000000000000600052601160045260246000fd5b60006108ac826105ba565b91506108b7836105ba565b9250828210156108ca576108c9610872565b5b828203905092915050565b7f4e487b7100000000000000000000000000000000000000000000000000000000600052602260045260246000fd5b6000600282049050600182168061091c57607f821691505b60208210810361092f5761092e6108d5565b5b5091905056fea264697066735822122014a83cf8d1b02e781e24cba648985998140a1c109ea611cf013ac37ead43e1a064736f6c634300080d0033",
  "immutableReferences": {},
  "source": "// SPDX-License-Identifier: MIT\npragma solidity ^0.8.13;\n\ncontract Boquila {\n\n    string[] public list;\n    mapping (string => uint256) public pkToIndex;\n\n    function addElement(string memory elem) public { //returns (uint256){\n        // Add element to the blockchain\n        // uint256 size = list.length;\n        list.push(elem);\n        pkToIndex[elem] = list.length - 1;\n        // return size; //cannot return something here because it is not allowed by the interface\n    }\n\n    function getIndexOfElement(string memory elem) public view returns (uint256) {\n        // Get the index of an element from the blockchain\n        // handle teh case where the element is not in the list\n        return pkToIndex[elem];\n    }\n\n    function getList() public view returns (string[] memory) {\n        // Get the list of elements from the blockchain\n        return list;\n    }   \n}",
  "sourcePath": "/Users/mariarosariabarbaraci/Documents/IC3/Boquila/contracts/truffle/contracts/Boquila.sol",
  "compiler": {
    "name": "solc",
    "version": "0.8.13+commit.abaa5c0e.Emscripten.clang"
  },
  "schemaVersion": "3.4.16",
  "updatedAt": "2024-06-14T21:46:52.599Z",
  "networkType": "ethereum",
  "devdoc": {
    "kind": "dev",
    "methods": {},
    "version": 1
  },
  "userdoc": {
    "kind": "user",
    "methods": {},
    "version": 1
  }
}